:020000041B00DF
:10000000000400104900001B7500001B7700001B56
:100010007900001B7B00001B7D00001B5A5A5A5AB6
:100020000000000000000000000000007F00001B36
:100030008100001B000000008300001B8500001BE6
:100040008700001B8900001B10480168B1F5805132
:1000500003D04FF48051016003E00D484FF480510C
:1000600001604FF47E634FF47E60401EFDD15B1E45
:10007000F9D1E9E7FEE7FEE7FEE7FEE7FEE7FEE788
:10008000FEE7FEE7FEE7FEE7FEE7000018620F402E
:0400900098620F4023
:040000051B00004993
:00000001FF
