:020000041A00E0
:10000000000400104900001ACD00001ACF00001AA9
:10001000D100001AD300001AD500001A5A5A5A5AB1
:10002000000000000000000000000000D700001ADF
:10003000D900001A00000000DB00001ADD00001AE1
:10004000DF00001AE100001A26484FF0FF3101607E
:1000500025484FF0FF31016024484FF02401016032
:1000600023484FF02401016022484FF4C051016041
:1000700021484FF00001016020484FF0D851016045
:100080001F484FF4805101601E484FF0807101609D
:100090001B484FF0000101601A484FF00001016059
:1000A00019480168B1F5006103D04FF400610160A7
:1000B00003E016484FF4006101604FF47E634FF493
:1000C0007E60401EFDD15B1EF9D1E9E7FEE7FEE749
:1000D000FEE7FEE7FEE7FEE7FEE7FEE7FEE7FEE7F8
:1000E000FEE70000D84F0440E84F04403066084067
:1000F0003466084018600F4098600F400434044094
:10010000003105400431054018620F4098620F40ED
:040000051A00004994
:00000001FF
