:020000041A00E0
:10000000000400104900001AAF00001AB100001AE5
:10001000B300001AB500001AB700001A5A5A5A5A0B
:10002000000000000000000000000000B900001AFD
:10003000BB00001A00000000BD00001ABF00001A3B
:10004000C100001AC300001A1E484FF0FF310160C2
:100050001D484FF0FF3101601C484FF02401016042
:100060001B484FF0240101601A484FF4C051016051
:1000700019484FF00001016018484FF0D851016055
:1000800017484FF48051016016484FF080710160AD
:1000900013484FF00001016012484FF00001016069
:1000A000114812494FF4006202600A60FCE7FEE763
:1000B000FEE7FEE7FEE7FEE7FEE7FEE7FEE7FEE718
:1000C000FEE7FEE7D84F0440E84F044030660840A2
:1000D0003466084018600F4098600F4004340440B4
:1000E000003105400431054018620F4098620F400E
:020000041B00DF
:10000000000800104900001B5500001B5700001B92
:100010005900001B5B00001B5D00001B5A5A5A5A16
:100020000000000000000000000000005F00001B56
:100030006100001B000000006300001B6500001B46
:100040006700001B6900001B08480949094A026053
:100050000A60FCE7FEE7FEE7FEE7FEE7FEE7FEE7F5
:10006000FEE7FEE7FEE7FEE7FEE7000018620F404E
:0800700098620F400010FFFF31
:0400000500000000F7
:00000001FF
